{
  "_format": "hh3-artifact-1",
  "contractName": "MultiSigWallet",
  "sourceName": "contracts/MultiSigWallet.sol",
  "abi": [
    {
      "inputs": [
        {
          "internalType": "address[]",
          "name": "_owners",
          "type": "address[]"
        },
        {
          "internalType": "uint256",
          "name": "_numConfirmationsRequired",
          "type": "uint256"
        }
      ],
      "stateMutability": "nonpayable",
      "type": "constructor"
    },
    {
      "anonymous": false,
      "inputs": [
        {
          "indexed": true,
          "internalType": "address",
          "name": "owner",
          "type": "address"
        },
        {
          "indexed": true,
          "internalType": "uint256",
          "name": "txIndex",
          "type": "uint256"
        }
      ],
      "name": "ConfirmTransaction",
      "type": "event"
    },
    {
      "anonymous": false,
      "inputs": [
        {
          "indexed": true,
          "internalType": "address",
          "name": "sender",
          "type": "address"
        },
        {
          "indexed": false,
          "internalType": "uint256",
          "name": "amount",
          "type": "uint256"
        },
        {
          "indexed": false,
          "internalType": "uint256",
          "name": "balance",
          "type": "uint256"
        }
      ],
      "name": "Deposit",
      "type": "event"
    },
    {
      "anonymous": false,
      "inputs": [
        {
          "indexed": true,
          "internalType": "address",
          "name": "owner",
          "type": "address"
        },
        {
          "indexed": true,
          "internalType": "uint256",
          "name": "txIndex",
          "type": "uint256"
        }
      ],
      "name": "ExecuteTransaction",
      "type": "event"
    },
    {
      "anonymous": false,
      "inputs": [
        {
          "indexed": true,
          "internalType": "address",
          "name": "owner",
          "type": "address"
        },
        {
          "indexed": true,
          "internalType": "uint256",
          "name": "txIndex",
          "type": "uint256"
        }
      ],
      "name": "RevokeConfirmation",
      "type": "event"
    },
    {
      "anonymous": false,
      "inputs": [
        {
          "indexed": true,
          "internalType": "address",
          "name": "owner",
          "type": "address"
        },
        {
          "indexed": true,
          "internalType": "uint256",
          "name": "txIndex",
          "type": "uint256"
        },
        {
          "indexed": true,
          "internalType": "address",
          "name": "to",
          "type": "address"
        },
        {
          "indexed": false,
          "internalType": "uint256",
          "name": "value",
          "type": "uint256"
        },
        {
          "indexed": false,
          "internalType": "bytes",
          "name": "data",
          "type": "bytes"
        }
      ],
      "name": "SubmitTransaction",
      "type": "event"
    },
    {
      "inputs": [
        {
          "internalType": "uint256",
          "name": "_txIndex",
          "type": "uint256"
        }
      ],
      "name": "confirmTransaction",
      "outputs": [],
      "stateMutability": "nonpayable",
      "type": "function"
    },
    {
      "inputs": [
        {
          "internalType": "uint256",
          "name": "_txIndex",
          "type": "uint256"
        }
      ],
      "name": "executeTransaction",
      "outputs": [],
      "stateMutability": "nonpayable",
      "type": "function"
    },
    {
      "inputs": [],
      "name": "getOwners",
      "outputs": [
        {
          "internalType": "address[]",
          "name": "",
          "type": "address[]"
        }
      ],
      "stateMutability": "view",
      "type": "function"
    },
    {
      "inputs": [
        {
          "internalType": "uint256",
          "name": "_txIndex",
          "type": "uint256"
        }
      ],
      "name": "getTransaction",
      "outputs": [
        {
          "internalType": "address",
          "name": "to",
          "type": "address"
        },
        {
          "internalType": "uint256",
          "name": "value",
          "type": "uint256"
        },
        {
          "internalType": "bytes",
          "name": "data",
          "type": "bytes"
        },
        {
          "internalType": "bool",
          "name": "executed",
          "type": "bool"
        },
        {
          "internalType": "uint256",
          "name": "numConfirmations",
          "type": "uint256"
        }
      ],
      "stateMutability": "view",
      "type": "function"
    },
    {
      "inputs": [],
      "name": "getTransactionCount",
      "outputs": [
        {
          "internalType": "uint256",
          "name": "",
          "type": "uint256"
        }
      ],
      "stateMutability": "view",
      "type": "function"
    },
    {
      "inputs": [
        {
          "internalType": "uint256",
          "name": "",
          "type": "uint256"
        },
        {
          "internalType": "address",
          "name": "",
          "type": "address"
        }
      ],
      "name": "isConfirmed",
      "outputs": [
        {
          "internalType": "bool",
          "name": "",
          "type": "bool"
        }
      ],
      "stateMutability": "view",
      "type": "function"
    },
    {
      "inputs": [
        {
          "internalType": "address",
          "name": "",
          "type": "address"
        }
      ],
      "name": "isOwner",
      "outputs": [
        {
          "internalType": "bool",
          "name": "",
          "type": "bool"
        }
      ],
      "stateMutability": "view",
      "type": "function"
    },
    {
      "inputs": [],
      "name": "numConfirmationsRequired",
      "outputs": [
        {
          "internalType": "uint256",
          "name": "",
          "type": "uint256"
        }
      ],
      "stateMutability": "view",
      "type": "function"
    },
    {
      "inputs": [
        {
          "internalType": "uint256",
          "name": "",
          "type": "uint256"
        }
      ],
      "name": "owners",
      "outputs": [
        {
          "internalType": "address",
          "name": "",
          "type": "address"
        }
      ],
      "stateMutability": "view",
      "type": "function"
    },
    {
      "inputs": [
        {
          "internalType": "uint256",
          "name": "_txIndex",
          "type": "uint256"
        }
      ],
      "name": "revokeConfirmation",
      "outputs": [],
      "stateMutability": "nonpayable",
      "type": "function"
    },
    {
      "inputs": [
        {
          "internalType": "address",
          "name": "_to",
          "type": "address"
        },
        {
          "internalType": "uint256",
          "name": "_value",
          "type": "uint256"
        },
        {
          "internalType": "bytes",
          "name": "_data",
          "type": "bytes"
        }
      ],
      "name": "submitTransaction",
      "outputs": [],
      "stateMutability": "nonpayable",
      "type": "function"
    },
    {
      "inputs": [
        {
          "internalType": "uint256",
          "name": "",
          "type": "uint256"
        }
      ],
      "name": "transactions",
      "outputs": [
        {
          "internalType": "address",
          "name": "to",
          "type": "address"
        },
        {
          "internalType": "uint256",
          "name": "value",
          "type": "uint256"
        },
        {
          "internalType": "bytes",
          "name": "data",
          "type": "bytes"
        },
        {
          "internalType": "bool",
          "name": "executed",
          "type": "bool"
        },
        {
          "internalType": "uint256",
          "name": "numConfirmations",
          "type": "uint256"
        }
      ],
      "stateMutability": "view",
      "type": "function"
    },
    {
      "stateMutability": "payable",
      "type": "receive"
    }
  ],
  "bytecode": "0x608060405234801561000f575f5ffd5b50604051612475380380612475833981810160405281019061003191906104a5565b5f825111610074576040517f08c379a000000000000000000000000000000000000000000000000000000000815260040161006b90610559565b60405180910390fd5b5f81118015610084575081518111155b6100c3576040517f08c379a00000000000000000000000000000000000000000000000000000000081526004016100ba906105e7565b60405180910390fd5b5f5f90505b82518110156102a8575f8382815181106100e5576100e4610605565b5b602002602001015190505f73ffffffffffffffffffffffffffffffffffffffff168173ffffffffffffffffffffffffffffffffffffffff160361015d576040517f08c379a00000000000000000000000000000000000000000000000000000000081526004016101549061067c565b60405180910390fd5b60015f8273ffffffffffffffffffffffffffffffffffffffff1673ffffffffffffffffffffffffffffffffffffffff1681526020019081526020015f205f9054906101000a900460ff16156101e7576040517f08c379a00000000000000000000000000000000000000000000000000000000081526004016101de906106e4565b60405180910390fd5b6001805f8373ffffffffffffffffffffffffffffffffffffffff1673ffffffffffffffffffffffffffffffffffffffff1681526020019081526020015f205f6101000a81548160ff0219169083151502179055505f81908060018154018082558091505060019003905f5260205f20015f9091909190916101000a81548173ffffffffffffffffffffffffffffffffffffffff021916908373ffffffffffffffffffffffffffffffffffffffff1602179055505080806001019150506100c8565b50806002819055505050610702565b5f604051905090565b5f5ffd5b5f5ffd5b5f5ffd5b5f601f19601f8301169050919050565b7f4e487b71000000000000000000000000000000000000000000000000000000005f52604160045260245ffd5b610312826102cc565b810181811067ffffffffffffffff82111715610331576103306102dc565b5b80604052505050565b5f6103436102b7565b905061034f8282610309565b919050565b5f67ffffffffffffffff82111561036e5761036d6102dc565b5b602082029050602081019050919050565b5f5ffd5b5f73ffffffffffffffffffffffffffffffffffffffff82169050919050565b5f6103ac82610383565b9050919050565b6103bc816103a2565b81146103c6575f5ffd5b50565b5f815190506103d7816103b3565b92915050565b5f6103ef6103ea84610354565b61033a565b905080838252602082019050602084028301858111156104125761041161037f565b5b835b8181101561043b578061042788826103c9565b845260208401935050602081019050610414565b5050509392505050565b5f82601f830112610459576104586102c8565b5b81516104698482602086016103dd565b91505092915050565b5f819050919050565b61048481610472565b811461048e575f5ffd5b50565b5f8151905061049f8161047b565b92915050565b5f5f604083850312156104bb576104ba6102c0565b5b5f83015167ffffffffffffffff8111156104d8576104d76102c4565b5b6104e485828601610445565b92505060206104f585828601610491565b9150509250929050565b5f82825260208201905092915050565b7f4f776e65727320726571756972656400000000000000000000000000000000005f82015250565b5f610543600f836104ff565b915061054e8261050f565b602082019050919050565b5f6020820190508181035f83015261057081610537565b9050919050565b7f496e76616c6964206e756d626572206f6620726571756972656420636f6e66695f8201527f726d6174696f6e73000000000000000000000000000000000000000000000000602082015250565b5f6105d16028836104ff565b91506105dc82610577565b604082019050919050565b5f6020820190508181035f8301526105fe816105c5565b9050919050565b7f4e487b71000000000000000000000000000000000000000000000000000000005f52603260045260245ffd5b7f496e76616c6964206f776e6572000000000000000000000000000000000000005f82015250565b5f610666600d836104ff565b915061067182610632565b602082019050919050565b5f6020820190508181035f8301526106938161065a565b9050919050565b7f4f776e6572206e6f7420756e69717565000000000000000000000000000000005f82015250565b5f6106ce6010836104ff565b91506106d98261069a565b602082019050919050565b5f6020820190508181035f8301526106fb816106c2565b9050919050565b611d668061070f5f395ff3fe6080604052600436106100aa575f3560e01c80639ace38c2116100635780639ace38c21461024b578063a0e67e2b1461028b578063c01a8c84146102b5578063c6427474146102dd578063d0549b8514610305578063ee22610b1461032f57610101565b8063025e7c271461010557806320ea8d86146101415780632e7700f0146101695780632f54bf6e1461019357806333ea3dc8146101cf57806380f59a651461020f57610101565b36610101573373ffffffffffffffffffffffffffffffffffffffff167f90890809c654f11d6e72a28fa60149770a0d11ec6c92319d6ceb2bb0a4ea1a1534476040516100f79291906110f3565b60405180910390a2005b5f5ffd5b348015610110575f5ffd5b5061012b60048036038101906101269190611155565b610357565b60405161013891906111bf565b60405180910390f35b34801561014c575f5ffd5b5061016760048036038101906101629190611155565b610391565b005b348015610174575f5ffd5b5061017d610656565b60405161018a91906111d8565b60405180910390f35b34801561019e575f5ffd5b506101b960048036038101906101b4919061121b565b610662565b6040516101c69190611260565b60405180910390f35b3480156101da575f5ffd5b506101f560048036038101906101f09190611155565b61067f565b6040516102069594939291906112e9565b60405180910390f35b34801561021a575f5ffd5b5061023560048036038101906102309190611341565b610788565b6040516102429190611260565b60405180910390f35b348015610256575f5ffd5b50610271600480360381019061026c9190611155565b6107b2565b6040516102829594939291906112e9565b60405180910390f35b348015610296575f5ffd5b5061029f6108a4565b6040516102ac9190611436565b60405180910390f35b3480156102c0575f5ffd5b506102db60048036038101906102d69190611155565b61092e565b005b3480156102e8575f5ffd5b5061030360048036038101906102fe9190611582565b610bf7565b005b348015610310575f5ffd5b50610319610ded565b60405161032691906111d8565b60405180910390f35b34801561033a575f5ffd5b5061035560048036038101906103509190611155565b610df3565b005b5f8181548110610365575f80fd5b905f5260205f20015f915054906101000a900473ffffffffffffffffffffffffffffffffffffffff1681565b60015f3373ffffffffffffffffffffffffffffffffffffffff1673ffffffffffffffffffffffffffffffffffffffff1681526020019081526020015f205f9054906101000a900460ff1661041a576040517f08c379a000000000000000000000000000000000000000000000000000000000815260040161041190611648565b60405180910390fd5b806003805490508110610462576040517f08c379a0000000000000000000000000000000000000000000000000000000008152600401610459906116b0565b60405180910390fd5b8160038181548110610477576104766116ce565b5b905f5260205f2090600502016003015f9054906101000a900460ff16156104d3576040517f08c379a00000000000000000000000000000000000000000000000000000000081526004016104ca90611745565b60405180910390fd5b60045f8481526020019081526020015f205f3373ffffffffffffffffffffffffffffffffffffffff1673ffffffffffffffffffffffffffffffffffffffff1681526020019081526020015f205f9054906101000a900460ff1661056b576040517f08c379a0000000000000000000000000000000000000000000000000000000008152600401610562906117ad565b60405180910390fd5b5f600384815481106105805761057f6116ce565b5b905f5260205f20906005020190506001816004015f8282546105a291906117f8565b925050819055505f60045f8681526020019081526020015f205f3373ffffffffffffffffffffffffffffffffffffffff1673ffffffffffffffffffffffffffffffffffffffff1681526020019081526020015f205f6101000a81548160ff021916908315150217905550833373ffffffffffffffffffffffffffffffffffffffff167ff0dca620e2e81f7841d07bcc105e1704fb01475b278a9d4c236e1c62945edd5560405160405180910390a350505050565b5f600380549050905090565b6001602052805f5260405f205f915054906101000a900460ff1681565b5f5f60605f5f5f6003878154811061069a576106996116ce565b5b905f5260205f2090600502019050805f015f9054906101000a900473ffffffffffffffffffffffffffffffffffffffff16816001015482600201836003015f9054906101000a900460ff1684600401548280546106f690611858565b80601f016020809104026020016040519081016040528092919081815260200182805461072290611858565b801561076d5780601f106107445761010080835404028352916020019161076d565b820191905f5260205f20905b81548152906001019060200180831161075057829003601f168201915b50505050509250955095509550955095505091939590929450565b6004602052815f5260405f20602052805f5260405f205f915091509054906101000a900460ff1681565b600381815481106107c1575f80fd5b905f5260205f2090600502015f91509050805f015f9054906101000a900473ffffffffffffffffffffffffffffffffffffffff169080600101549080600201805461080b90611858565b80601f016020809104026020016040519081016040528092919081815260200182805461083790611858565b80156108825780601f1061085957610100808354040283529160200191610882565b820191905f5260205f20905b81548152906001019060200180831161086557829003601f168201915b505050505090806003015f9054906101000a900460ff16908060040154905085565b60605f80548060200260200160405190810160405280929190818152602001828054801561092457602002820191905f5260205f20905b815f9054906101000a900473ffffffffffffffffffffffffffffffffffffffff1673ffffffffffffffffffffffffffffffffffffffff16815260200190600101908083116108db575b5050505050905090565b60015f3373ffffffffffffffffffffffffffffffffffffffff1673ffffffffffffffffffffffffffffffffffffffff1681526020019081526020015f205f9054906101000a900460ff166109b7576040517f08c379a00000000000000000000000000000000000000000000000000000000081526004016109ae90611648565b60405180910390fd5b8060038054905081106109ff576040517f08c379a00000000000000000000000000000000000000000000000000000000081526004016109f6906116b0565b60405180910390fd5b8160038181548110610a1457610a136116ce565b5b905f5260205f2090600502016003015f9054906101000a900460ff1615610a70576040517f08c379a0000000000000000000000000000000000000000000000000000000008152600401610a6790611745565b60405180910390fd5b8260045f8281526020019081526020015f205f3373ffffffffffffffffffffffffffffffffffffffff1673ffffffffffffffffffffffffffffffffffffffff1681526020019081526020015f205f9054906101000a900460ff1615610b0a576040517f08c379a0000000000000000000000000000000000000000000000000000000008152600401610b01906118d2565b60405180910390fd5b5f60038581548110610b1f57610b1e6116ce565b5b905f5260205f20906005020190506001816004015f828254610b4191906118f0565b92505081905550600160045f8781526020019081526020015f205f3373ffffffffffffffffffffffffffffffffffffffff1673ffffffffffffffffffffffffffffffffffffffff1681526020019081526020015f205f6101000a81548160ff021916908315150217905550843373ffffffffffffffffffffffffffffffffffffffff167f5cbe105e36805f7820e291f799d5794ff948af2a5f664e580382defb6339004160405160405180910390a35050505050565b60015f3373ffffffffffffffffffffffffffffffffffffffff1673ffffffffffffffffffffffffffffffffffffffff1681526020019081526020015f205f9054906101000a900460ff16610c80576040517f08c379a0000000000000000000000000000000000000000000000000000000008152600401610c7790611648565b60405180910390fd5b5f600380549050905060036040518060a001604052808673ffffffffffffffffffffffffffffffffffffffff1681526020018581526020018481526020015f151581526020015f815250908060018154018082558091505060019003905f5260205f2090600502015f909190919091505f820151815f015f6101000a81548173ffffffffffffffffffffffffffffffffffffffff021916908373ffffffffffffffffffffffffffffffffffffffff160217905550602082015181600101556040820151816002019081610d539190611ac3565b506060820151816003015f6101000a81548160ff0219169083151502179055506080820151816004015550508373ffffffffffffffffffffffffffffffffffffffff16813373ffffffffffffffffffffffffffffffffffffffff167fd5a05bf70715ad82a09a756320284a1b54c9ff74cd0f8cce6219e79b563fe59d8686604051610ddf929190611b92565b60405180910390a450505050565b60025481565b60015f3373ffffffffffffffffffffffffffffffffffffffff1673ffffffffffffffffffffffffffffffffffffffff1681526020019081526020015f205f9054906101000a900460ff16610e7c576040517f08c379a0000000000000000000000000000000000000000000000000000000008152600401610e7390611648565b60405180910390fd5b806003805490508110610ec4576040517f08c379a0000000000000000000000000000000000000000000000000000000008152600401610ebb906116b0565b60405180910390fd5b8160038181548110610ed957610ed86116ce565b5b905f5260205f2090600502016003015f9054906101000a900460ff1615610f35576040517f08c379a0000000000000000000000000000000000000000000000000000000008152600401610f2c90611745565b60405180910390fd5b5f60038481548110610f4a57610f496116ce565b5b905f5260205f209060050201905060025481600401541015610fa1576040517f08c379a0000000000000000000000000000000000000000000000000000000008152600401610f9890611c0a565b60405180910390fd5b6001816003015f6101000a81548160ff0219169083151502179055505f815f015f9054906101000a900473ffffffffffffffffffffffffffffffffffffffff1673ffffffffffffffffffffffffffffffffffffffff1682600101548360020160405161100d9190611cb2565b5f6040518083038185875af1925050503d805f8114611047576040519150601f19603f3d011682016040523d82523d5f602084013e61104c565b606091505b5050905080611090576040517f08c379a000000000000000000000000000000000000000000000000000000000815260040161108790611d12565b60405180910390fd5b843373ffffffffffffffffffffffffffffffffffffffff167f5445f318f4f5fcfb66592e68e0cc5822aa15664039bd5f0ffde24c5a8142b1ac60405160405180910390a35050505050565b5f819050919050565b6110ed816110db565b82525050565b5f6040820190506111065f8301856110e4565b61111360208301846110e4565b9392505050565b5f604051905090565b5f5ffd5b5f5ffd5b611134816110db565b811461113e575f5ffd5b50565b5f8135905061114f8161112b565b92915050565b5f6020828403121561116a57611169611123565b5b5f61117784828501611141565b91505092915050565b5f73ffffffffffffffffffffffffffffffffffffffff82169050919050565b5f6111a982611180565b9050919050565b6111b98161119f565b82525050565b5f6020820190506111d25f8301846111b0565b92915050565b5f6020820190506111eb5f8301846110e4565b92915050565b6111fa8161119f565b8114611204575f5ffd5b50565b5f81359050611215816111f1565b92915050565b5f602082840312156112305761122f611123565b5b5f61123d84828501611207565b91505092915050565b5f8115159050919050565b61125a81611246565b82525050565b5f6020820190506112735f830184611251565b92915050565b5f81519050919050565b5f82825260208201905092915050565b8281835e5f83830152505050565b5f601f19601f8301169050919050565b5f6112bb82611279565b6112c58185611283565b93506112d5818560208601611293565b6112de816112a1565b840191505092915050565b5f60a0820190506112fc5f8301886111b0565b61130960208301876110e4565b818103604083015261131b81866112b1565b905061132a6060830185611251565b61133760808301846110e4565b9695505050505050565b5f5f6040838503121561135757611356611123565b5b5f61136485828601611141565b925050602061137585828601611207565b9150509250929050565b5f81519050919050565b5f82825260208201905092915050565b5f819050602082019050919050565b6113b18161119f565b82525050565b5f6113c283836113a8565b60208301905092915050565b5f602082019050919050565b5f6113e48261137f565b6113ee8185611389565b93506113f983611399565b805f5b8381101561142957815161141088826113b7565b975061141b836113ce565b9250506001810190506113fc565b5085935050505092915050565b5f6020820190508181035f83015261144e81846113da565b905092915050565b5f5ffd5b5f5ffd5b7f4e487b71000000000000000000000000000000000000000000000000000000005f52604160045260245ffd5b611494826112a1565b810181811067ffffffffffffffff821117156114b3576114b261145e565b5b80604052505050565b5f6114c561111a565b90506114d1828261148b565b919050565b5f67ffffffffffffffff8211156114f0576114ef61145e565b5b6114f9826112a1565b9050602081019050919050565b828183375f83830152505050565b5f611526611521846114d6565b6114bc565b9050828152602081018484840111156115425761154161145a565b5b61154d848285611506565b509392505050565b5f82601f83011261156957611568611456565b5b8135611579848260208601611514565b91505092915050565b5f5f5f6060848603121561159957611598611123565b5b5f6115a686828701611207565b93505060206115b786828701611141565b925050604084013567ffffffffffffffff8111156115d8576115d7611127565b5b6115e486828701611555565b9150509250925092565b5f82825260208201905092915050565b7f4e6f74206f776e657200000000000000000000000000000000000000000000005f82015250565b5f6116326009836115ee565b915061163d826115fe565b602082019050919050565b5f6020820190508181035f83015261165f81611626565b9050919050565b7f547820646f6573206e6f742065786973740000000000000000000000000000005f82015250565b5f61169a6011836115ee565b91506116a582611666565b602082019050919050565b5f6020820190508181035f8301526116c78161168e565b9050919050565b7f4e487b71000000000000000000000000000000000000000000000000000000005f52603260045260245ffd5b7f547820616c7265616479206578656375746564000000000000000000000000005f82015250565b5f61172f6013836115ee565b915061173a826116fb565b602082019050919050565b5f6020820190508181035f83015261175c81611723565b9050919050565b7f5478206e6f7420636f6e6669726d6564000000000000000000000000000000005f82015250565b5f6117976010836115ee565b91506117a282611763565b602082019050919050565b5f6020820190508181035f8301526117c48161178b565b9050919050565b7f4e487b71000000000000000000000000000000000000000000000000000000005f52601160045260245ffd5b5f611802826110db565b915061180d836110db565b9250828203905081811115611825576118246117cb565b5b92915050565b7f4e487b71000000000000000000000000000000000000000000000000000000005f52602260045260245ffd5b5f600282049050600182168061186f57607f821691505b6020821081036118825761188161182b565b5b50919050565b7f547820616c726561647920636f6e6669726d65640000000000000000000000005f82015250565b5f6118bc6014836115ee565b91506118c782611888565b602082019050919050565b5f6020820190508181035f8301526118e9816118b0565b9050919050565b5f6118fa826110db565b9150611905836110db565b925082820190508082111561191d5761191c6117cb565b5b92915050565b5f819050815f5260205f209050919050565b5f6020601f8301049050919050565b5f82821b905092915050565b5f6008830261197f7fffffffffffffffffffffffffffffffffffffffffffffffffffffffffffffffff82611944565b6119898683611944565b95508019841693508086168417925050509392505050565b5f819050919050565b5f6119c46119bf6119ba846110db565b6119a1565b6110db565b9050919050565b5f819050919050565b6119dd836119aa565b6119f16119e9826119cb565b848454611950565b825550505050565b5f5f905090565b611a086119f9565b611a138184846119d4565b505050565b5b81811015611a3657611a2b5f82611a00565b600181019050611a19565b5050565b601f821115611a7b57611a4c81611923565b611a5584611935565b81016020851015611a64578190505b611a78611a7085611935565b830182611a18565b50505b505050565b5f82821c905092915050565b5f611a9b5f1984600802611a80565b1980831691505092915050565b5f611ab38383611a8c565b9150826002028217905092915050565b611acc82611279565b67ffffffffffffffff811115611ae557611ae461145e565b5b611aef8254611858565b611afa828285611a3a565b5f60209050601f831160018114611b2b575f8415611b19578287015190505b611b238582611aa8565b865550611b8a565b601f198416611b3986611923565b5f5b82811015611b6057848901518255600182019150602085019450602081019050611b3b565b86831015611b7d5784890151611b79601f891682611a8c565b8355505b6001600288020188555050505b505050505050565b5f604082019050611ba55f8301856110e4565b8181036020830152611bb781846112b1565b90509392505050565b7f43616e6e6f7420657865637574652074780000000000000000000000000000005f82015250565b5f611bf46011836115ee565b9150611bff82611bc0565b602082019050919050565b5f6020820190508181035f830152611c2181611be8565b9050919050565b5f81905092915050565b5f8154611c3e81611858565b611c488186611c28565b9450600182165f8114611c625760018114611c7757611ca9565b60ff1983168652811515820286019350611ca9565b611c8085611923565b5f5b83811015611ca157815481890152600182019150602081019050611c82565b838801955050505b50505092915050565b5f611cbd8284611c32565b915081905092915050565b7f5478206661696c656400000000000000000000000000000000000000000000005f82015250565b5f611cfc6009836115ee565b9150611d0782611cc8565b602082019050919050565b5f6020820190508181035f830152611d2981611cf0565b905091905056fea264697066735822122072bde486fbeb0c0738639774e5cb55ee80690c917360eb821500205f3c3af33c64736f6c634300081c0033",
  "linkReferences": {},
  "deployedLinkReferences": {},
  "immutableReferences": {},
  "inputSourceName": "project/contracts/MultiSigWallet.sol",
  "buildInfoId": "solc-0_8_28-5f1005206ecdee8fea6fd99fc65c450bbca0e0ed"
}